:020000040800F2
:100000000000012071470008C1470008C1470008EF
:10001000C1470008C1470008C147000800000000B0
:1000200000000000000000000000000091400008F7
:10003000C147000800000000C140000895410008C9
:10004000C1470008C1470008C1470008C147000870
:10005000C1470008C1470008C1470008C147000860
:10006000C1470008C1470008C1470008C147000850
:10007000C1470008C1470008C1470008C147000840
:10008000C1470008C1470008C1470008C147000830
:10009000C1470008C1470008C1470008C147000820
:1000A000C1470008E5330008C1470008C147000800
:1000B000C14700080000000000000000C147000820
:1000C000C1470008C1470008C1470008C1470008F0
:1000D000C147000841470008514700086147000830
:1000E000C1470008C14700080000000000000000F0
:1000F0000000000000000000000000000000000000
:1001000000000000C147000800000000C1470008CF
:100110000000000000000000C1470008C1470008BF
:10012000C1470008C1470008C1470008C14700088F
:10013000C1470008000000000000000000000000AF
:10014000C1470008C1470008C1470008000000007F
:10015000C1470008C1470008C1470008C14700085F
:10016000C1470008C1470008C1470008000000005F
:10017000C1470008C147000800000000000000005F
:10018000C1470008C1470008C1470008000000003F
:1001900001F0FF01102A2BDB10F0070F08D010F838
:1001A000013B013A8B422DD010F0070F42B3F6D13C
:1001B000F0B441EA012141EA014122F007047FF055
:1001C00000070023F0E80256083C85EA010586EAAC
:1001D000010685FA47F5A3FA87F586FA47F6A5FAE8
:1001E00087F68EB9EED1F0BC01F0FF0102F00702F4
:1001F00032B110F8013B013A83EA010313B1F8D19F
:100200000020704701387047002D06BF354603387F
:10021000073815F0010F07D1013015F4807F02BFB8
:10022000013015F4C03F0130F0BC0138704700BF09
:10023000034613F8012B002AFBD1181A0138704726
:1002400081F0004102E000BF83F0004330B54FEA87
:1002500041044FEA430594EA050F08BF90EA020FF4
:100260001FBF54EA000C55EA020C7FEA645C7FEA87
:10027000655C00F0E2804FEA5454D4EB5555B8BFAA
:100280006D420CDD2C4480EA020281EA030382EA1B
:10029000000083EA010180EA020281EA0303362DAD
:1002A00088BF30BD11F0004F4FEA01314FF4801C80
:1002B0004CEA113102D0404261EB410113F0004F92
:1002C0004FEA03334CEA133302D0524263EB430349
:1002D00094EA050F00F0A780A4F10104D5F1200EE7
:1002E0000DDB02FA0EFC22FA05F2801841F1000142
:1002F00003FA0EF2801843FA05F359410EE0A5F116
:1003000020050EF1200E012A03FA0EFC28BF4CF046
:10031000020C43FA05F3C01851EBE37101F00045FC
:1003200007D54FF0000EDCF1000C7EEB00006EEB09
:100330000101B1F5801F1BD3B1F5001F0CD3490893
:100340005FEA30004FEA3C0C04F101044FEA4452EA
:1003500012F5800F80F09A80BCF1004F08BF5FEA71
:10036000500C50F1000041EB045141EA050130BD51
:100370005FEA4C0C404141EB0101013C28BFB1F563
:10038000801FE9D291F0000F04BF01460020B1FAAE
:1003900081F308BF2033A3F10B03B3F120020CDA81
:1003A0000C3208DD02F1140CC2F10C0201FA0CF05F
:1003B00021FA02F10CE002F11402D8BFC2F1200CC4
:1003C00001FA02F120FA0CFCDCBF41EA0C0190407A
:1003D000E41AA2BF01EB0451294330BD6FEA0404C3
:1003E0001F3C1CDA0C340EDC04F11404C4F12002AE
:1003F00020FA04F001FA02F340EA030021FA04F3C0
:1004000045EA030130BDC4F10C04C4F1200220FA16
:1004100002F001FA04F340EA0300294630BD21FA54
:1004200004F0294630BD94F0000F83F4801306BF1A
:1004300081F480110134013D4EE77FEA645C18BF0E
:100440007FEA655C29D094EA050F08BF90EA020FA5
:1004500005D054EA000C04BF1946104630BD91EA9D
:10046000030F1EBF0021002030BD5FEA545C05D1A0
:100470004000494128BF41F0004130BD14F58004DF
:100480003CBF01F5801130BD01F0004545F0FE4153
:1004900041F470014FF0000030BD7FEA645C1ABF88
:1004A000194610467FEA655C1CBF0B46024650EABF
:1004B000013406BF52EA033591EA030F41F40021EB
:1004C00030BD00BF90F0000F04BF0021704730B571
:1004D0004FF4806404F132044FF000054FF0000146
:1004E00050E700BF90F0000F04BF0021704730B507
:1004F0004FF4806404F1320410F0004548BF4042DC
:100500004FF000013EE700BF42004FEAE2014FEA30
:1005100031014FEA02701FBF12F07F4393F07F4F0B
:1005200081F06051704732F07F4208BF704793F00E
:100530007F4F04BF41F40021704730B54FF4607421
:1005400001F0004521F000411CE700BF50EA010224
:1005500008BF704730B54FF000050AE050EA0102CD
:1005600008BF704730B511F0004502D5404261EB3D
:1005700041014FF4806404F132045FEA915C3FF47E
:10058000D8AE4FF003025FEADC0C18BF03325FEA1B
:10059000DC0C18BF033202EBDC02C2F1200300FACC
:1005A00003FC20FA02F001FA03FE40EA0E0021FAF1
:1005B00002F11444BDE600BF70B54FF0FF0C4CF4DF
:1005C000E06C1CEA11541DBF1CEA135594EA0C0F91
:1005D00095EA0C0F00F0DEF82C4481EA030621EACC
:1005E0004C5123EA4C5350EA013518BF52EA033507
:1005F00041F4801143F4801338D0A0FB02CE4FF0B9
:100600000005E1FB02E506F00042E0FB03E54FF0E8
:100610000006E1FB03569CF0000F18BF4EF0010EE0
:10062000A4F1FF04B6F5007F64F5407404D25FEADC
:100630004E0E6D4146EB060642EAC62141EA55518F
:100640004FEAC52040EA5E504FEACE2EB4F1FD0CD1
:1006500088BFBCF5E06F1ED8BEF1004F08BF5FEA4F
:10066000500E50F1000041EB045170BD06F0004601
:1006700046EA010140EA020081EA0301B4EB5C04AE
:10068000C2BFD4EB0C0541EA045170BD41F48011A6
:100690004FF0000E013C00F3AB8014F1360FDEBFCB
:1006A000002001F0004170BDC4F10004203C35DAA7
:1006B0000C341BDC04F11404C4F1200500FA05F32A
:1006C00020FA04F001FA05F240EA020001F00042CB
:1006D00021F0004110EBD37021FA04F642EB060141
:1006E0005EEA430E08BF20EAD37070BDC4F10C046B
:1006F000C4F1200500FA04F320FA05F001FA04F22F
:1007000040EA020001F0004110EBD37041F100011A
:100710005EEA430E08BF20EAD37070BDC4F1200525
:1007200000FA05F24EEA020E20FA04F301FA05F28D
:1007300043EA020321FA04F001F0004121FA04F235
:1007400020EA020000EBD3705EEA430E08BF20EA05
:10075000D37070BD94F0000F0FD101F0004640003F
:1007600041EB010111F4801F08BF013CF7D041EAC1
:10077000060195F0000F18BF704703F000465200C5
:1007800043EB030313F4801F08BF013DF7D043EA96
:100790000603704794EA0C0F0CEA135518BF95EA4C
:1007A0000C0F0CD050EA410618BF52EA4306D1D1D3
:1007B00081EA030101F000414FF0000070BD50EAF2
:1007C000410606BF1046194652EA430619D094EA7C
:1007D0000C0F02D150EA013613D195EA0C0F05D166
:1007E00052EA03361CBF104619460AD181EA0301BA
:1007F00001F0004141F0FE4141F470014FF0000072
:1008000070BD41F0FE4141F4780170BD70B54FF00C
:10081000FF0C4CF4E06C1CEA11541DBF1CEA13558C
:1008200094EA0C0F95EA0C0F00F0A7F8A4EB05046E
:1008300081EA030E52EA03354FEA013100F0888065
:100840004FEA03334FF0805545EA131343EA12632E
:100850004FEA022245EA111545EA10654FEA0026E3
:100860000EF000419D4208BF964244F1FD0404F59C
:10087000407402D25B084FEA3202B61A65EB0305F8
:100880005B084FEA32024FF480104FF4002CB6EBB5
:10089000020E75EB030E22BFB61A754640EA0C0035
:1008A0005B084FEA3202B6EB020E75EB030E22BF75
:1008B000B61A754640EA5C005B084FEA3202B6EBB6
:1008C000020E75EB030E22BFB61A754640EA9C0075
:1008D0005B084FEA3202B6EB020E75EB030E22BF45
:1008E000B61A754640EADC0055EA060E18D04FEA03
:1008F000051545EA16754FEA06164FEAC30343EAA3
:1009000052734FEAC2025FEA1C1CC0D111F4801F6F
:100910000BD141EA00014FF000004FF0004CB6E768
:1009200011F4801F04BF01430020B4F1FD0C88BF07
:10093000BCF5E06F3FF6AFAEB5EB030C04BFB6EB12
:10094000020C5FEA500C50F1000041EB045170BD05
:100950000EF0004E4EEA113114EB5C04C2BFD4EB32
:100960000C0541EA045170BD41F480114FF0000EB6
:10097000013C90E645EA060E8DE60CEA135594EA32
:100980000C0F08BF95EA0C0F3FF43BAF94EA0C0F35
:100990000AD150EA01347FF434AF95EA0C0F7FF4AA
:1009A00025AF104619462CE795EA0C0F06D152EAFE
:1009B00003353FF4FDAE1046194622E750EA4106E2
:1009C00018BF52EA43067FF4C5AE50EA41047FF4F3
:1009D0000DAF52EA43057FF4EBAE12E74FF0FF3C58
:1009E00006E000BF4FF0010C02E000BF4FF0010C29
:1009F0004DF804CD4FEA410C7FEA6C5C4FEA430CA2
:100A000018BF7FEA6C5C1BD001B050EA410C0CBFF0
:100A100052EA430C91EA030F02BF90EA020F002052
:100A2000704710F1000F91EA030F58BF994208BFB9
:100A300090422CBFD8176FEAE37040F00100704776
:100A40004FEA410C7FEA6C5C02D150EA013C07D1CD
:100A50004FEA430C7FEA6C5CD6D152EA033CD3D018
:100A60005DF8040B704700BF8446104662468C4612
:100A70001946634600E000BF01B5FFF7B7FF002845
:100A800048BF10F1000F01BD4DF808EDFFF7F4FF6E
:100A90000CBF012000205DF808FB00BF4DF808EDF9
:100AA000FFF7EAFF34BF012000205DF808FB00BF1C
:100AB0004DF808EDFFF7E0FF94BF012000205DF83E
:100AC00008FB00BF4DF808EDFFF7CEFF94BF0120F3
:100AD00000205DF808FB00BF4DF808EDFFF7C4FFEC
:100AE00034BF012000205DF808FB00BF4FEA410C35
:100AF0007FEA6C5C02D150EA013C0AD14FEA430C18
:100B00007FEA6C5C02D152EA033C02D14FF0000054
:100B100070474FF0010070474FEA410212F5001292
:100B200015D211D56FF47873B3EB625212D94FEA34
:100B3000C12343F0004343EA505311F0004F23FA1E
:100B400002F018BF404270474FF00000704750EA73
:100B5000013005D111F0004008BF6FF00040704730
:100B60004FF00000704700BF53B94AB9002908BFD1
:100B700000281CBF4FF0FF314FF0FF3000F00CB8E1
:100B8000ADF1080C6DE904CE06F016FBDDF804E0CB
:100B9000DDE9022304B07047704700BF0348044BEF
:100BA000834202D0034B03B11847704780030020F3
:100BB00080030020000000000548064B1B1AD90FD7
:100BC00001EBA301491002D0034B03B11847704752
:100BD00080030020800300200000000010B5064CB8
:100BE000237843B9FFF7DAFF044B13B10448AFF39E
:100BF00000800123237010BD80030020000000004E
:100C00007474000808B5054B1BB105490548AFF3DE
:100C10000080BDE80840FFF7CFBF00BF0000000024
:100C2000840300207474000870B588B00024039415
:100C300004940594069407941C4BDA6C42F001026C
:100C4000DA64DA6C02F001020192019ADA6C42F085
:100C50000202DA64DB6C03F002030293029B224679
:100C600041F214014FF0904000F040FB104D22463D
:100C70004DF2C101284600F039FB41F21403039301
:100C8000012604960594069403A94FF0904000F0C5
:100C900049FA4DF2C103039304960594069403A9FF
:100CA000284600F03FFA08B070BD00BF00100240B7
:100CB00000040048642800D96420054BDA6802FB70
:100CC00000F0044AA2FB002040091B68D86370476B
:100CD000240400201F85EB51642800D96420054BB3
:100CE000DA6802FB00F0044AA2FB002040091B68FE
:100CF00058637047240400201F85EB5108B501227A
:100D000000F0F4FA08BD08B5002200F0EFFA08BDC3
:100D100072B6FEE700B589B00023059306930793EA
:100D200001930293039304931548164A02604360AB
:100D300083604FF6FF72C26003614361836101F01B
:100D400029FBB8B9002305930693079305A90C481E
:100D500001F09AFD80B900230193012202920393CE
:100D600004930C2201A9064801F080FC30B909B0B7
:100D70005DF804FBFFF7CCFFFFF7CAFFFFF7C8FFE2
:100D800074040020002C014000B58FB000230B93A9
:100D90000C930D930493059306930793089309937B
:100DA0000A93009301930293039328484FF08042E3
:100DB00002604F224260836040F2E732C26003610A
:100DC000836101F087FA002831D1204801F0E2FA6E
:100DD00000282ED11D4801F0ADFA60BB00230B9313
:100DE0000D930BA9194801F04FFD30BB002204926E
:100DF00005920692089204A9144801F035FBF0B957
:100E00000023009301220192029303930422694676
:100E10000E4801F02BFCA0B960230493082204A91A
:100E20000A4801F05EFB70B90FB05DF804FBFFF7F4
:100E30006FFFFFF76DFFFFF76BFFFFF769FFFFF72E
:100E400067FFFFF765FFFFF763FF00BF2404002083
:100E500008B50B480B4B03604FF4E13343600023AC
:100E60008360C36003610C2242618361C3610362DA
:100E7000436202F004FA00B908BDFFF749FF00BF62
:100E80009C0300200038014000B597B044220021A7
:100E900005A804F0C7F9002300930193029303937C
:100EA00004934FF4007000F02FFAD0B9102305938B
:100EB00001230B9300230C9360220D920F9305A83E
:100EC00000F00CFB78B90F230093002101910291EF
:100ED00003910491684600F037FE30B917B05DF811
:100EE00004FBFFF715FFFFF713FFFFF711FF0000EB
:100EF00008B500F02BF8FFF7C7FFFFF795FEFFF7E7
:100F000009FFFFF741FFFFF7A3FF0E4C0821204622
:100F100001F01EFC0021204601F01AFC0A4C0121C0
:100F20002046FFF7F0FE01212046FFF7E7FE2820CC
:100F3000FFF7C0FE2820FFF7CFFE4FF4FA7000F055
:100F400027F8F4E7240400200004004810B503202B
:100F500000F074F80F2002F0EFF910B101242046E0
:100F600010BD044602F0C8F9F9E70000034B1B78F6
:100F7000034A11680B441360704700BF0000002053
:100F800070040020014B1868704700BF70040020F7
:100F900038B50446FFF7F6FF0546B4F1FF3F02D02F
:100FA000044B1B781C44FFF7EDFF401BA042FAD313
:100FB00038BD00BF00000020002807DB00F01F0242
:100FC000400901239340024A42F82030704700BF95
:100FD00000E100E0002808DB0901C9B200F160402F
:100FE00000F5614080F80013704700F00F00090120
:100FF000C9B2014B1954704714ED00E000B500F080
:101000000700C0F1070CBCF1040F28BF4FF0040C1F
:10101000031D062B0FD9C31E4FF0FF3E0EFA0CF036
:1010200021EA000199400EFA03FE22EA0E0241EA8B
:1010300002005DF804FB0023EEE70000074AD368D6
:1010400023F4E0631B041B0C000200F4E060034384
:1010500043F0BF6343F40033D360704700ED00E01A
:1010600010B50446054BD868C0F30220FFF7C6FF51
:1010700001462046FFF7AEFF10BD00BF00ED00E0C7
:1010800008B5FFF799FF08BD90F82530DBB2022BB9
:1010900006D00423C363002380F824300120704766
:1010A0000268136823F00E0313600268136823F0CC
:1010B00001031360436C03F01C03016C012202FA6C
:1010C00003F34B6080F82520002380F82430184675
:1010D000704708B590F82530DBB2022B03D004230B
:1010E000C363012008BD0268136823F00E03136078
:1010F0000268136823F001031360436C03F01C03C0
:10110000016C012202FA03F34B6080F825200023D2
:1011100080F82430836B13B198470020E2E7002069
:10112000E0E70000F0B583B0002362E085685E0070
:101130000324B44025EA0405CC68B4402C43846001
:10114000456825EA0C054C68C4F300149C402C4308
:1011500044605FE0DD08083550F8254003F0070CD7
:101160004FEA8C0C4FF00F0E0EFA0CFE24EA0E0E16
:101170000C6904FA0CF444EA0E0440F8254060E0DF
:10118000042400E0002404FA0EF42C430CF1020CB9
:10119000524D45F82C40524CA568D44325EA02062E
:1011A0004F6817F4801F01D042EA05064C4DAE602F
:1011B000ED6804EA05064F6817F4001F01D042EA03
:1011C0000506474DEE606D6804EA05064F6817F4A2
:1011D000003F01D042EA0506414D6E602D682C406B
:1011E0004E6816F4803F01D042EA05043C4A146080
:1011F00001330A6832FA03F46ED04FF0010C0CFA96
:1012000003FC1CEA0202F3D04C6804F00304013C26
:10121000012C8BD94C6804F00304032C0CD0C46857
:101220005D004FF0030C0CFA05FC24EA0C0C8C68F2
:10123000AC4044EA0C04C4604C6804F00304022C83
:1012400088D004684FEA430E4FF0030C0CFA0EFCF2
:1012500024EA0C0C4C6804F0030404FA0EF444EA8B
:101260000C0404604C6814F4403FC1D01D4C256E42
:1012700045F001052566246E04F001040194019CEB
:101280004FEA930C0CF10205144C54F8255003F06E
:10129000030E4FEA8E0E0F2404FA0EF425EA04051D
:1012A000B0F1904F3FF46EAF0F4CA0420ED004F55A
:1012B0008064A0420CD004F58064A0420AD004F5FA
:1012C0008064A0423FF45CAF07245CE701245AE746
:1012D000022458E7032456E703B0F0BD00000140A4
:1012E0000004014000100240000400480AB181617E
:1012F0007047816270470000024B186800F4C060BC
:10130000704700BF00700040B0F5007F0FD01F4B4A
:101310001B6803F4C063B3F5806F34D01B4A1368B5
:1013200023F4C06343F48063136000207047174BBD
:101330001B6803F4C063B3F5007F20D0134A136821
:1013400023F4C06343F400731360114B1B68322213
:1013500002FB03F30F4AA2FB03239B0C013300E0C3
:10136000013B0A4A526912F4806F01D0002BF7D179
:10137000064B5B6913F4806F03D100207047002097
:101380007047032070470020704700BF0070004086
:101390000800002083DE1B4330B583B00446204B99
:1013A0009B6D13F0805F0BD0FFF7A6FFB0F5007FB9
:1013B00017D0802C1FD82DD0702C2DD000211BE0F1
:1013C000174DAB6D43F08053AB65AB6D03F08053AD
:1013D0000193019BFFF790FFAB6D23F08053AB654A
:1013E000E4E7802C03D9A02C03D9022104E00021DA
:1013F00002E0012100E003210A4A136823F00703F9
:101400000B431360136803F007038B4206D10020DF
:1014100003B030BD0221EFE70121EDE70120F7E73E
:101420000010024000200240284A9368D26802F06F
:10143000030213F00C030AD00C2B06D0042B1FD090
:10144000082B20D00020024610E0012AF6D11F4AC6
:10145000126812F0080F0CD11C4AD2F89420C2F383
:1014600003221B4951F8222043B100200C2B0DD040
:101470007047164A1268C2F30312F2E71046F5E706
:1014800014480022F2E714480022EFE70F4BDB6814
:1014900003F00303022B16D0032B00D10E4A0B4995
:1014A000CB68C3F302130133C868C0F3062002FB04
:1014B00000F0B0FBF3F0CB68C3F3416301335B0092
:1014C000B0FBF3F0D4E7034AE9E700BF00100240A5
:1014D000907400080024F40000127A00002800F044
:1014E0001C83F0B583B00446964B9D6805F00C054F
:1014F000DE6806F00306036813F0100F5AD0E5B15A
:101500000C2D18D0A369002B00F0BB808D4A136806
:1015100043F001031360FFF735FD0746894B1B6855
:1015200013F0020F40F09A80FFF72CFDC01B022839
:10153000F4D90320FCE2012EE4D1824B1B6813F0A6
:10154000020F03D0A369002B00F0E982206A7D4BD3
:101550001B6813F0080F5BD07A4B1B6803F0F00395
:1015600098425CD8774B1A6842F008021A601A68F1
:1015700022F0F002216A0A431A605A6822F47F427C
:10158000E16942EA01225A60002D60D0FFF74CFF6A
:101590006C4B9B68C3F303136B4AD35C03F01F03CC
:1015A000D8406A4B18606A4B186801F0C5FE0028E5
:1015B00040F0BE82236813F0010F00F08180082DF7
:1015C00075D00C2D71D06368B3F5803F00F0978023
:1015D000B3F5A02F00F099805A4B1A6822F480329C
:1015E0001A601A6822F480221A606368002B00F0E7
:1015F0009980FFF7C7FC0746524B1B6813F4003F66
:101600005ED1FFF7BFFCC01B6428F5D903208FE231
:101610004C4BD3F894301B0903F0F003A0E7FFF71D
:10162000BBFE002840F07D82464B1A6842F008025B
:101630001A601A6822F0F002216A0A431A605A6896
:1016400022F47F42E16942EA01225A609EE7206A61
:10165000FFF7A2FE002899D0012069E2394B1A68F1
:1016600042F008021A601A6822F0F002216A0A4366
:101670001A605A6822F47F42E16942EA01225A6004
:1016800098E7304A136823F001031360FFF77AFCF0
:1016900007462C4B1B6813F0020F8BD0FFF772FC30
:1016A000C01B0228F5D9032042E2032E8BD1254B23
:1016B0001B6813F4003F03D06368002B00F03382F3
:1016C000236813F0020F58D0042D45D00C2D41D0C3
:1016D000E368002B77D01B4A136843F480731360D0
:1016E000FFF750FC0646174B1B6813F4806F61D15F
:1016F000FFF748FC801B0228F5D9032018E2114AA5
:10170000136843F4803313606FE703F18043A3F55C
:101710003C331A6842F480221A601A6842F480321C
:101720001A6062E7FFF72EFC0746064B1B6813F4AE
:10173000003FC5D0FFF726FCC01B6428F5D9032065
:10174000F6E100BF00100240C87400080800002045
:1017500004000020022EBBD1A44B1B6813F4806F41
:1017600003D0E368002B00F0E081A04A536823F027
:10177000F853216943EA01635360236813F0080FAB
:101780004CD063699BB3994AD2F8943043F001037B
:10179000C2F89430FFF7F6FB0646944BD3F894302A
:1017A00013F0020F3AD1FFF7EDFB801B0228F4D9AA
:1017B0000320BDE18D4A536823F0F853216943EAC1
:1017C00001635360D9E7894A136823F48073136077
:1017D000FFF7D8FB0646854B1B6813F4806FCCD00F
:1017E000FFF7D0FB801B0228F5D90320A0E17F4A38
:1017F000D2F8943023F00103C2F89430FFF7C2FB13
:1018000006467A4BD3F8943013F0020F06D0FFF758
:10181000B9FB801B0228F4D9032089E1236813F067
:10182000040F7AD0714B9B6D13F0805F36D16F4BF4
:101830009A6D42F080529A659B6D03F0805301933C
:10184000019B01266A4B1B6813F4807F28D0A36894
:10185000012B39D0052B3FD0644BD3F8902022F0D8
:101860000102C3F89020D3F8902022F00402C3F8BC
:101870009020A368002B3DD0FFF784FB07465B4B0D
:10188000D3F8903013F0020F46D1FFF77BFBC01B5B
:1018900041F288339842F2D9032049E10026D1E78A
:1018A000534A136843F480731360FFF76BFB0746DA
:1018B0004F4B1B6813F4807FC9D1FFF763FBC01B3C
:1018C0000228F5D9032033E1484AD2F8903043F09A
:1018D0000103C2F89030CCE7444BD3F8902042F09B
:1018E0000402C3F89020D3F8902042F00102C3F81C
:1018F0009020BEE7FFF746FB07463C4BD3F89030FD
:1019000013F0020F08D0FFF73DFBC01B41F28833F4
:101910009842F2D903200BE1E6B9236813F0200FB7
:1019200035D0636AE3B1314AD2F8983043F001030D
:10193000C2F89830FFF726FB06462C4BD3F89830B8
:1019400013F0020F23D1FFF71DFB801B0228F4D9EF
:101950000320EDE0254A936D23F080539365DCE787
:10196000224AD2F8983023F00103C2F89830FFF7EA
:1019700009FB06461D4BD3F8983013F0020F06D032
:10198000FFF700FB801B0228F4D90320D0E0A36AF4
:10199000002B00F0CC80022B17D00C2D00F0CC8057
:1019A000124A136823F080731360FFF7EBFA0446C2
:1019B0000E4B1B6813F0007F00F0A880FFF7E2FADF
:1019C000001B0228F4D90320B2E0084BDB6803F0C7
:1019D0000301E26A91420DD00C2D00F0AB80034B65
:1019E0001B6813F0806F2FD00120A1E0001002408F
:1019F0000070004003F07002216B0139B2EB011F4F
:101A0000EAD103F4FE42616BB2EB012FE4D103F0A3
:101A10007842A16BB2EBC16FDED103F4C001E26B7F
:101A20005208013AB1EB425FD6D103F0C063226C99
:101A30005208013AB3EB426FCED1404B1B6813F012
:101A4000007F49D0002073E03C4A136823F0807384
:101A50001360FFF797FA0546384B1B6813F0007FB9
:101A600006D0FFF78FFA401B0228F5D903205FE06C
:101A7000324AD36832491940E36A206B013843EA9D
:101A80000013606B43EA0023E06B4008013843EA2F
:101A90004053206C4008013843EA4063A06B43EA9E
:101AA000C0631943D160136843F080731360D36837
:101AB00043F08073D360FFF765FA04461F4B1B6841
:101AC00013F0007F06D1FFF75DFA001B0228F5D95D
:101AD00003202DE000202BE0184B1A6842F08072A2
:101AE0001A60DA6842F08072DA60FFF74BFA044657
:101AF000124B1B6813F0007F06D1FFF743FA031B5C
:101B0000022BF5D9032013E0002011E00B4AD16825
:101B10000C4B0B40D36000200AE0012070470120ED
:101B200006E0012004E0012002E0012000E00020A6
:101B300003B0F0BD0120FBE70120F9E700100240EF
:101B40008C809D01FCFFEEFE002800F0AF8070B598
:101B50000D460446594B1B6803F007038B420BD21A
:101B6000564A136823F007030B431360136803F00E
:101B700007038B4240F09C80236813F0020F0CD0C7
:101B8000A2684F4B9B6803F0F0039A4205D94C4979
:101B90008B6823F0F0031A438A60236813F0010F67
:101BA00039D06368032B09D0022B26D063BB444A8B
:101BB000126812F0020F06D1012076E0404A126846
:101BC00012F0007F76D03E498A6822F00302134368
:101BD0008B60FFF7D7F90646394B9B6803F00C037F
:101BE0006268B3EB820F16D0FFF7CCF9801B41F28D
:101BF00088339842F0D9032057E0314A126812F432
:101C0000003FE0D1012050E02D4A126812F4806FAD
:101C1000D9D1012049E0236813F0020F0CD0A2684B
:101C2000274B9B6803F0F0039A4205D224498B6846
:101C300023F0F0031A438A60204B1B6803F007036C
:101C4000AB420AD91D4A136823F007032B431360E4
:101C5000136803F00703AB422ED1236813F0040F7F
:101C600006D0174A936823F4E063E1680B4393605E
:101C7000236813F0080F07D0114A936823F46053C8
:101C8000216943EAC1039360FFF7CEFB0C4B9B68CD
:101C9000C3F303130B4AD35C03F01F03D8400A4B72
:101CA00018600A4B186801F047FB70BD01207047AF
:101CB0000120FAE70120F8E70120F6E700200240C2
:101CC00000100240C8740008080000200400002032
:101CD000014B1868704700BF0800002008B5FFF7E7
:101CE000F7FF054B9B68C3F30223044AD35C03F060
:101CF0001F03D84008BD00BF00100240C074000898
:101D000008B5FFF7E5FF054B9B68C3F3C223044A00
:101D1000D35C03F01F03D84008BD00BF0010024091
:101D2000C07400080F2303600B4B9A6802F0030293
:101D300042609A6802F0F00282609A6802F4E062FF
:101D4000C2609B68DB0803F4E0630361034B1B681C
:101D500003F007030B6070470010024000200240B0
:101D600030B4026A036A23F00103036244688369A2
:101D700023F4803323F073030D681D4322F0020225
:101D80008B681343144A904207D002F5A052904248
:101D900003D002F58062904205D123F00803CA689F
:101DA0001A4322F004030C4A904207D002F5A052D5
:101DB000904203D002F58062904205D124F4407431
:101DC0004A6922438C691443446085614A684263CE
:101DD000036230BC704700BF002C014030B4036A7E
:101DE000026A22F4807202624468C26922F480327C
:101DF00022F073020D68154323F400738A6843EAE6
:101E00000223104A904207D00F4A90420BD002F5AD
:101E1000806290420FD106E023F40063CA6843EA6F
:101E2000022323F4806324F440544A6944EA0214F0
:101E30008A6944EA02144460C5614A68C263036265
:101E400030BC7047002C01400040014030B4026AB1
:101E5000036A23F4805303624468C36923F08073E8
:101E600023F4E6430D6843EA052322F400528D680B
:101E700042EA05320B4DA84207D005F5A055A8420D
:101E800003D005F58065A84204D124F480444D694F
:101E900044EA85144460C3614B680364026230BC49
:101EA000704700BF002C014030B4036A026A22F47C
:101EB000803202624468426D22F4803222F0700265
:101EC0000D682A4323F400338D6843EA05430B4D24
:101ED000A84207D005F5A055A84203D005F58065B6
:101EE000A84204D124F480344D6944EA05244460B6
:101EF00042654A688265036230BC7047002C01402D
:101F000030B4026A036A23F4801303624468436DA9
:101F100023F0807323F4E0430D6843EA052322F4A1
:101F200000128D6842EA05520B4DA84207D005F514
:101F3000A055A84203D005F58065A84204D124F439
:101F400080244D6944EA8524446043654B68C36539
:101F5000026230BC704700BF002C014030B4056AFB
:101F6000046A24F010040462846924F4407C4CEA7E
:101F7000022C2CF4704C1B039BB243EA0C0325F09B
:101F8000A005090101F0A00129438361016230BC71
:101F9000704730B4056A046A24F480740462C4692A
:101FA00024F0030C4CEA020C2CF0F00C1B01DBB209
:101FB00043EA0C0325F42065090201F4206129435A
:101FC000C361016230BC704730B4056A046A24F40E
:101FD00080540462C46924F4407C4CEA022C2CF442
:101FE000704C1B039BB243EA0C0325F42045090304
:101FF00001F420412943C361016230BC704770473E
:1020000090F83D30DBB2012B26D1022380F83D3021
:102010000268D36843F00103D3600368114A934216
:102020000CD0B3F1804F09D002F5A052934205D0F5
:102030001A6842F001021A600020704799680A4A43
:102040000A40062A0AD0B2F5803F09D01A6842F049
:1020500001021A600020704701207047002070477D
:1020600000207047002C01400700010070477047B6
:102070007047704770477047704770B504460368F3
:10208000DE681D6915F0020F10D016F0020F0DD09A
:102090006FF002021A610123037703689B6913F052
:1020A000030F64D0FFF7E6FF0023237715F0040F3A
:1020B00012D016F0040F0FD023686FF004021A61DB
:1020C0000223237723689B6913F4407F55D0204671
:1020D000FFF7D0FF0023237715F0080F12D016F07A
:1020E000080F0FD023686FF008021A6104232377CA
:1020F0002368DB6913F0030F46D02046FFF7BAFFD1
:102100000023237715F0100F12D016F0100F0FD008
:1021100023686FF010021A61082323772368DB69B4
:1021200013F4407F37D02046FFF7A4FF0023237726
:1021300015F0010F02D016F0010F33D115F4025F34
:1021400002D016F0800F35D115F4807F02D016F042
:10215000800F37D115F0400F02D016F0400F39D163
:1021600015F0200F02D016F0200F3BD170BDFFF705
:1021700080FF2046FFF77FFF96E72046FFF779FFB5
:102180002046FFF778FFA5E72046FFF772FF2046BD
:10219000FFF771FFB4E72046FFF76BFF2046FFF71C
:1021A0006AFFC3E723686FF001021A61204601F05D
:1021B0000DF9C3E723686FF402521A61204600F05C
:1021C0009CFBC1E723686FF480721A61204600F01F
:1021D00095FBBFE723686FF040021A612046FFF7C6
:1021E0004BFFBDE723686FF020021A61204600F024
:1021F00083FBBBE703681E4A904202D0B0F1804FD8
:1022000003D123F070034A681343194A90420AD05D
:10221000B0F1804F07D002F5A052904203D002F5F2
:102220008062904203D123F44073CA68134323F0C1
:1022300080034A69134303608B68C3620B6883623F
:102240000B4B984207D003F5A053984203D003F5F7
:102250008063984201D10B690363012343610369E1
:1022600013F0010F03D0036923F0010303617047EA
:10227000002C014060B310B5044690F83D3013B314
:10228000022384F83D30214651F8040BFFF7B2FFDA
:10229000012384F8483084F83E3084F83F3084F8D5
:1022A000403084F8413084F8423084F8433084F878
:1022B000443084F8453084F8463084F8473084F858
:1022C0003D30002010BD80F83C30FFF798FED7E786
:1022D0000120704760B310B5044690F83D3013B349
:1022E000022384F83D30214651F8040BFFF782FFAA
:1022F000012384F8483084F83E3084F83F3084F875
:10230000403084F8413084F8423084F8433084F817
:10231000443084F8453084F8463084F8473084F8F7
:102320003D30002010BD80F83C30FFF79FFED7E71E
:102330000120704760B310B5044690F83D3013B3E8
:10234000022384F83D30214651F8040BFFF752FF79
:10235000012384F8483084F83E3084F83F3084F814
:10236000403084F8413084F8423084F8433084F8B7
:10237000443084F8453084F8463084F8473084F897
:102380003D30002010BD80F83C30FFF770FED7E7ED
:102390000120704760B310B5044690F83D3013B388
:1023A000022384F83D30214651F8040BFFF722FF49
:1023B000012384F8483084F83E3084F83F3084F8B4
:1023C000403084F8413084F8423084F8433084F857
:1023D000443084F8453084F8463084F8473084F837
:1023E0003D30002010BD80F83C30FFF741FED7E7BC
:1023F0000120704730B4036A026A22F010020262C0
:102400004468826922F0807222F4E6420D6842EA52
:10241000052223F020038D6843EA0513104DA842DE
:1024200007D0104DA8420BD005F58065A8420FD10A
:1024300006E023F08003CD6843EA051323F0400350
:1024400024F440644D6944EA85048D6944EA8504B6
:10245000446082614A688263036230BC704700BF97
:10246000002C01400040014090F83C30012B36D058
:1024700010B50446012380F83C30142A2AD8DFE83E
:1024800002F00B29292910292929152929291A2976
:1024900029291F29292924000068FFF761FC002051
:1024A00019E00068FFF7A6FF002014E00068FFF7BE
:1024B00095FC00200FE00068FFF7C8FC00200AE050
:1024C0000068FFF7F1FC002005E00068FFF718FD49
:1024D000002000E00120002384F83C3010BD0220E1
:1024E000704738B590F83C30012B00F095800446D9
:1024F0000D46012380F83C30142A00F28880DFE882
:1025000002F00B8686861F868686348686864886F7
:1025100086865D86868671000068FFF721FC22684A
:10252000936943F0080393612268936923F00403DD
:1025300093612268936929690B439361002067E0E6
:102540000068FFF757FF2268936943F400639361C3
:102550002268936923F480639361226893692969EF
:1025600043EA01239361002052E00068FFF736FC44
:102570002268D36943F00803D3612268D36923F04A
:102580000403D3612268D36929690B43D361002016
:102590003EE00068FFF75AFC2268D36943F4006309
:1025A000D3612268D36923F48063D3612268D3693D
:1025B000296943EA0123D361002029E00068FFF77D
:1025C00073FC2268536D43F0080353652268536D12
:1025D00023F0040353652268536D29690B43536547
:1025E000002015E00068FFF78BFC2268536D43F470
:1025F000006353652268536D23F48063536522683A
:10260000536D296943EA01235365002000E001204E
:10261000002384F83C3038BD0220FCE770B4056A22
:10262000046A24F00104046284690F4EB04209D0A8
:10263000B0F1804F06D006F5A056B04202D044F06B
:10264000010202E024F00304224322F0F0021B0105
:10265000DBB2134325F00A0201F00A011143836142
:10266000016270BC704700BF002C014038B590F883
:102670003C30012B5AD004460D46012380F83C30F3
:1026800052B1042A1AD0082A2BD00C2A3BD00120A0
:10269000002384F83C3038BDCB684A68096800687C
:1026A000FFF7BCFF2268936923F00C039361226853
:1026B0009369A9680B4393610020E9E7CB684A68F6
:1026C00009680068FFF74AFC2268936923F44063B5
:1026D000936122689369A96843EA0123936100200A
:1026E000D6E7CB684A6809680068FFF752FC2268A1
:1026F000D36923F00C03D3612268D369A9680B4323
:10270000D3610020C4E7CB684A6809680068FFF716
:102710005BFC2268D36923F44063D3612268D369E8
:10272000A96843EA0123D3610020B1E70220B2E7A0
:1027300001F01F014FF0010C0CFA01FC036A23EABF
:102740000C030362036A8A4013430362704700006C
:1027500010B5044610293BD8DFE801F0093A3A3AAF
:102760001E3A3A3A253A3A3A2C3A3A3A330090F835
:102770003E30DBB2013B18BF0123002B79D1102979
:1027800065D8DFE801F02C646464546464645864C0
:1027900064645C646464600090F83F30DBB2013BC9
:1027A00018BF0123E9E790F84030DBB2013B18BFC6
:1027B0000123E2E790F84130DBB2013B18BF01236F
:1027C000DBE790F84230DBB2013B18BF0123D4E7CE
:1027D00090F84330DBB2013B18BF0123CDE7022361
:1027E00084F83E3001222068FFF7A2FF2368244AC4
:1027F000934207D002F5A052934203D002F58062C3
:10280000934203D15A6C42F400425A6423681C4A32
:10281000934220D0B3F1804F1DD002F5A0529342D5
:1028200019D01A6842F001021A60002022E0022347
:1028300084F83F30D6E7022384F84030D2E7022301
:1028400084F84130CEE7022384F84230CAE70223FD
:1028500084F84330C6E799680A4A0A40062A0AD033
:10286000B2F5803F09D01A6842F001021A600020D8
:1028700000E0012010BD0020FCE70020FAE700BFC7
:10288000002C01400700010090F83C20012A2FD0C5
:1028900030B40346012280F83C20022280F83D201B
:1028A000006842688468134DA8421CD022F0700270
:1028B0000D682A4342601A680E48824206D0B2F17F
:1028C000804F03D000F5A050824204D124F0800450
:1028D000896821439160012283F83D20002083F81C
:1028E0003C0030BC704722F470024D682A43DDE79B
:1028F00002207047002C0140704770477047026803
:1029000052E8003F23F4907342E800310029F6D1E9
:10291000026802F1080353E8003F23F00103083284
:1029200042E800310029F3D1036E012B06D02023A9
:10293000C0F880300023036683667047026852E85F
:10294000003F23F0100342E800310029F6D1EEE702
:10295000C36F212B00D07047B0F852309BB293B9AF
:10296000026852E8003F23F0800342E8003100296A
:10297000F6D1026852E8003F43F0400342E80031DC
:102980000029F6D17047C36C1A7803681A85C36CA6
:102990000133C364B0F852309BB2013B9BB2A0F844
:1029A0005230D8E7C36F212B00D07047B0F85230B7
:1029B0009BB293B9026852E8003F23F0800342E8DB
:1029C00000310029F6D1026852E8003F43F040038D
:1029D00042E800310029F6D17047C36C1B880268B9
:1029E000C3F308031385C36C0233C364B0F85230D9
:1029F0009BB2013B9BB2A0F85230D6E7C36F202BAD
:102A000023D121B32AB3C164A0F85020A0F85220EA
:102A10000023C366C0F884302123C3678368B3F5FD
:102A2000805F0CD00C4BC366026852E8003F43F055
:102A3000800342E800310029F6D100207047036985
:102A4000002BEFD1054BC366EEE702207047012053
:102A500070470120704700BF51290008A5290008D0
:102A600008B5026852E8003F23F0400342E8003115
:102A70000029F6D12023C3670023C36601F004FEBA
:102A800008BD704708B5806A0023A0F85A30A0F846
:102A90005230FFF7F6FF08BD7047000070B50446DE
:102AA0000268D3691168906840F60F0C13EA0C0FA6
:102AB0000AD113F0200F0DD011F0200F0AD0A36E11
:102AC0000BB3204698471EE010F001051CD1AD4E17
:102AD000314219D1256E012D00F0A48013F4801F1E
:102AE00003D010F4800F40F0468113F0800F03D024
:102AF00011F0800F40F04A8113F0400F03D011F025
:102B0000400F40F04A8170BD13F0010F09D011F45D
:102B1000807F06D001201062D4F884200243C4F8DC
:102B2000842013F0020F09D045B122680220106200
:102B3000D4F8842042F00402C4F8842013F0040F77
:102B400009D045B1226804201062D4F8842042F0F4
:102B50000202C4F8842013F0080F0BD011F0200FEC
:102B600000D13DB1226808201062D4F884200243CD
:102B7000C4F8842013F4006F0CD011F0806F09D0DA
:102B800022684FF400601062D4F8842042F02002E2
:102B9000C4F88420D4F88420002AB4D013F0200F85
:102BA00006D011F0200F03D0A36E0BB1204698473A
:102BB000D4F8842023689B6813F0400F02D112F0F0
:102BC000280F28D02046FFF79AFE23689B6813F051
:102BD000400F1CD0226802F1080353E8003F23F0A5
:102BE0004003083242E800310029F3D1636F53B14A
:102BF000654A9A63606FFEF76CFA002883D0606FB5
:102C0000836B98477FE72046FFF73BFF7BE7204633
:102C1000FFF737FF77E72046FFF733FF0023C4F8BD
:102C2000843070E713F0100F3FF458AF11F0100F1D
:102C30003FF454AF1023136223689B6813F0400FD6
:102C40005FD0616F0A6853689BB2002B49D0B4F81B
:102C50005800984245D9A4F85A300B681B6813F005
:102C6000200F31D1226852E8003F23F4807342E8FC
:102C700000310029F6D1226802F1080353E8003F31
:102C800023F00103083242E800310029F3D1226821
:102C900002F1080353E8003F23F04003083242E802
:102CA00000310029F3D12023C4F8803000232366AB
:102CB000226852E8003F23F0100342E80031002967
:102CC000F6D1606FFEF7E0F902236366B4F858109E
:102CD000B4F85A309BB2C91A89B22046FFF7DCFE1D
:102CE00011E7B4F8581099427FF40DAF136813F050
:102CF000200F3FF408AF022363662046FFF7CCFEA7
:102D000001E7B4F85810B4F85A309BB2C91A89B226
:102D1000B4F85A309BB2002B3FF4F5AE00293FF4D3
:102D2000F2AE226852E8003F23F4907342E800308C
:102D30000028F6D1226802F1080353E8003F23F08F
:102D40000103083242E800300028F3D12023C4F800
:102D5000803000232366A366226852E8003F23F0F8
:102D6000100342E800300028F6D1022363662046B3
:102D7000FFF792FEC7E64FF480131362204600F07F
:102D8000AFFAC0E620010004852A0008E36E002B9C
:102D90003FF4B9AE20469847B5E62046FFF760FEFF
:102DA000B1E600BFC26FD0F880001043704700004A
:102DB00010B50446016883680269134342691343EE
:102DC000C26913430868954A02401A430A602268A0
:102DD000536823F44053E1680B435360A1692268B0
:102DE0008F4B9A4201D0236A1943936823F43063CE
:102DF0000B43936023688B4A93421FD08A4A9342C5
:102E000030D08A4A934246D0854A934255D0102208
:102E100083498B427AD0E069B0F5004F00F0A6807C
:102E2000082A00F20F81DFE812F0CE00E500CC00A6
:102E30000D01E8000D010D010D01EB0002F55842F6
:102E4000D2F8882002F00302032A09D8DFE802F052
:102E500002044A060122DBE70422D9E70822D7E769
:102E60001022D5E702F5E632D2F8882002F00C02F3
:102E70000C2A0ED8DFE802F0070D0D0D090D0D0D1F
:102E8000380D0D0D0B000022C2E70422C0E7082216
:102E9000BEE71022BCE702F5E432D2F8882002F047
:102EA0003002202A22D004D812B3102A22D10422C0
:102EB000AEE7302A20D10822AAE702F5C832D2F8BC
:102EC000882002F44062B2F5006F17D005D8BAB17D
:102ED000B2F5806F16D104229AE7B2F5406F13D194
:102EE000082295E7022293E7022291E702228FE768
:102EF00000228DE710228BE7102289E7022287E764
:102F0000002285E7102283E7102281E7082A7AD879
:102F1000DFE802F008792A792779797905004FF4FA
:102F2000004003E0FEF7DAFE00286ED0626802EB94
:102F3000420383426BD8B0EB023F6AD8010E000215
:102F40005308C0184FF0000341F10001FDF70CFEDB
:102F5000A0F54072364B9A425DD82368D8600020B5
:102F600044E0FEF761FADFE73248DFE7082A63D87A
:102F7000DFE802F007210562246262620B002D483F
:102F800003E0FEF7ABFE002858D06268530803EB5D
:102F90004003B3FBF2F3A3F110014FF6EF7291423D
:102FA0004ED89AB222F00F02C3F3420313432268B1
:102FB000D36000201AE0FEF7A3FEE4E7FEF734FA40
:102FC000E1E71C4803E0FEF789FE00283CD0636877
:102FD00000EB5300B0FBF3F0A0F110024FF6EF73DB
:102FE0009A4233D8236880B2D86000200023A366B9
:102FF000E36610BDFEF784FEE7E7FEF715FAE4E7A7
:103000004FF40040E3E70120F0E70020EEE7012065
:10301000ECE70120EAE70120E8E700BFF369FFEFF2
:10302000008000400038014000440040004800405B
:10303000FFFC0F000024F4000120D7E70020D5E7B3
:103040000120D3E70120D1E70020CFE70120CDE721
:10305000436A13F0080F06D00268536823F4004354
:10306000416B0B435360436A13F0010F06D00268B3
:10307000536823F40033816A0B435360436A13F0AF
:10308000020F06D00268536823F48033C16A0B43F1
:103090005360436A13F0040F06D00268536823F4A8
:1030A0008023016B0B435360436A13F0100F06D06B
:1030B0000268936823F48053816B0B439360436AE7
:1030C00013F0200F06D00268936823F40053C16BFD
:1030D0000B439360436A13F0400F0AD002685368B1
:1030E00023F48013016C0B435360036CB3F5801F12
:1030F0000BD0436A13F0800F06D00268536823F4A4
:103100000023816C0B43536070470268536823F4BB
:10311000C003416C0B435360EBE72DE9F8430546D0
:103120000E4617469946DDF820802B68DC6936EAA2
:1031300004040CBF01240024BC4236D1B8F1FF3F87
:10314000F3D0FDF71FFFA0EB0900404530D8B8F1E0
:10315000000F2FD02B681A6812F0040FE5D0802ED4
:10316000E3D0402EE1D0DA6912F0080F11D1DA690C
:1031700012F4006FD9D04FF400621A622846FFF7AC
:10318000BEFB2023C5F88430002385F87830032067
:103190000CE008241C622846FFF7B1FBC5F8844008
:1031A000002385F87830012000E00020BDE8F88396
:1031B0000320FBE70320F9E730B583B00446002382
:1031C000C0F88430FDF7DEFE05462268126812F072
:1031D000080F0FD123681B6813F0040F26D120239A
:1031E000E367C4F8803000202066606684F87800C9
:1031F00003B030BD6FF07E430093034600224FF4CE
:1032000000112046FFF789FF0028E3D0226852E82A
:10321000003F23F0800342E800310029F6D120234B
:10322000E367002384F878300320E1E76FF07E4302
:1032300000932B4600224FF480012046FFF76DFFDC
:103240000028CCD0226852E8003F23F4907342E873
:1032500000310029F6D1226802F1080353E8003F4B
:1032600023F00103083242E800310029F3D1202382
:10327000C4F88030002384F878300320B8E768B3BE
:1032800010B50446C36F03B32423E36722681368B1
:1032900023F001031360636AE3B92046FFF788FD5A
:1032A000012811D02268536823F4904353602268A8
:1032B000936823F02A0393602268136843F00103A4
:1032C00013602046FFF778FF10BD80F8783001F0DA
:1032D000AFF8D9E72046FFF7BBFEDEE701207047D5
:1032E00070470000034AD2F8883043F47003C2F8F4
:1032F0008830704700ED00E000B583B00D4B1A6ECA
:1033000042F001021A661A6E02F001020092009A5F
:103310009A6D42F080529A659B6D03F08053019341
:10332000019B00220F216FF00100FDF799FE03B011
:103330005DF804FB0010024030B589B004461E4B16
:103340001A6E42F400621A661B6E03F40063019366
:10335000019B02A903A8FEF7E5FCFEF7D1FC174A82
:10336000A2FB00239B0C013B1548164A026040F269
:10337000E732C26043600023036183608361FEF72C
:1033800079FF054610B1284609B030BD0C48FEF75C
:1033900037FE05460028F6D11920FDF771FE0F2CE7
:1033A00001D90125EFE7002221461920FDF758FE3B
:1033B000054B1C60E7E700BF0010024083DE1B43A3
:1033C00074040020002C01400400002008B50268AD
:1033D000034B9A4200D008BDFDF7C8FDFBE700BFD4
:1033E000002C014008B50248FEF747FE08BD00BFAB
:1033F0007404002030B40D68B5F1FF3F11D000F126
:1034000008031C465B681A68AA42FAD963684B60D5
:1034100099608C606160086103680133036030BCAF
:1034200070470469F2E70369416882688A6041680D
:1034300051605A68824205D0002202611868013842
:103440001860704782685A60F6E710B5044600F0CD
:1034500069FEA26BE36B9A4204D0002400F084FE64
:10346000204610BD0124F9E710B5044600F05AFECD
:10347000A36B23B9012400F077FE204610BD002481
:10348000F9E770B504461546866B026C5AB90368B5
:103490001BB100200136A66370BD806800F092FD6C
:1034A0000023A360F6E76DB9406801F0F4FE63689D
:1034B000226C13446360A268934219D3236863604B
:1034C0002846E7E7C06801F0E6FEE368226C514257
:1034D0009B1AE3602268934202D2A3680B44E36024
:1034E000022D01D00020D5E726B1013E0020D1E712
:1034F0002846CFE70020CDE70346026C6AB110B53D
:103500000846D9681144D9609C68A14201D3196862
:10351000D960D96801F0BFFE10BD704738B50546C7
:1035200000F000FE95F8454064B201E0013C64B251
:10353000002C0ADD6B6A43B105F1240000F060FC49
:103540000028F3D000F028FDF0E7FF2385F8453090
:1035500000F00AFE00F0E6FD95F8444064B201E098
:10356000013C64B2002C0ADD2B6943B105F1100067
:1035700000F046FC0028F3D000F00EFDF0E7FF233A
:1035800085F8443000F0F0FD38BDF0B585B001920B
:1035900088B10F461D460446B1B1022D20D1E36B20
:1035A000012B1DD04FF0500383F31188BFF36F8FB1
:1035B000BFF34F8FFEE74FF0500383F31188BFF343
:1035C0006F8FBFF34F8FFEE7036C002BE5D04FF0FA
:1035D000500383F31188BFF36F8FBFF34F8FFEE764
:1035E00000F0E0FC064658B9019B002B48D04FF094
:1035F000500383F31188BFF36F8FBFF34F8FFEE744
:1036000000263DE02A4639462046FFF73AFF636A26
:103610007BB948B14FF0E0234FF08052C3F8042D3E
:10362000BFF34F8FBFF36F8F00F09EFD012005B0F9
:10363000F0BD04F1240000F0E3FB0028F4D04FF0CB
:10364000E0234FF08052C3F8042DBFF34F8FBFF338
:103650006F8FE9E700F088FD0020E8E702A800F09E
:103660004BFC012619E0002384F8443021E00023BC
:1036700084F8453023E02046FFF750FF00F0B0FA11
:1036800000F050FDA26BE36B9A42BBD3022DB9D080
:10369000019B002BDED0002EE0D000F065FD00F095
:1036A000D5F900F03FFD94F8442052B2B2F1FF3F4B
:1036B000D9D094F8452052B2B2F1FF3FD7D000F0F4
:1036C00053FD01A902A800F023FCD8B92046FFF75A
:1036D000BCFE0028CFD0019904F1100000F078FB67
:1036E0002046FFF71BFF00F07BFA0028C8D14FF0FF
:1036F000E0234FF08052C3F8042DBFF34F8FBFF388
:103700006F8FBDE72046FFF709FF00F069FA002040
:103710008DE7F0B585B0019290B10F460446C1B176
:1037200000F040FC064600BB019B002B5ED04FF032
:10373000500383F31188BFF36F8FBFF34F8FFEE702
:103740004FF0500383F31188BFF36F8FBFF34F8F98
:10375000FEE7036C002BE3D04FF0500383F3118896
:10376000BFF36F8FBFF34F8FFEE700263EE0394671
:103770002046FFF7C1FE013DA563236923B900F090
:10378000F3FC012005B0F0BD04F1100000F038FB9F
:103790000028F4D04FF0E0234FF08052C3F8042DFE
:1037A000BFF34F8FBFF36F8FE9E700F0DDFC002020
:1037B000E8E702A800F0A0FB012621E0002384F83E
:1037C000443029E0002384F845302BE02046FFF701
:1037D000A5FE00F005FA09E02046FFF79FFE00F085
:1037E000FFF92046FFF740FE00283FD100F09AFC89
:1037F000A56B002DBBD1019B002BD6D0002ED8D0BD
:1038000000F0B2FC00F022F900F08CFC94F8443097
:103810005BB2B3F1FF3FD1D094F845305BB2B3F166
:10382000FF3FCFD000F0A0FC01A902A800F070FB80
:103830000028D1D12046FFF717FE0028C6D00199F5
:1038400004F1240000F0C4FA2046FFF767FE00F000
:10385000C7F90028CAD14FF0E0234FF08052C3F8D7
:10386000042DBFF34F8FBFF36F8FBFE7002089E7B1
:103870002DE9F843B0B10E4690460446D9B100F0A8
:103880009FFCEFF311854FF0500383F31188BFF3D2
:103890006F8FBFF34F8FA76BCFB9002085F31188CF
:1038A000BDE8F8834FF0500383F31188BFF36F8FA7
:1038B000BFF34F8FFEE7036C002BE0D04FF05003B7
:1038C00083F31188BFF36F8FBFF34F8FFEE794F838
:1038D00044904FFA89F931462046FFF70DFE7B1ED2
:1038E000A363B9F1FF3F0FD123690BB90120D5E7DD
:1038F00004F1100000F084FAE8B1B8F1000F1CD018
:103900000120C8F80000C9E700F0A8F8814516D2E8
:10391000B9F17F0F06D009F101035BB284F844309E
:103920000120BBE74FF0500383F31188BFF36F8F83
:10393000BFF34F8FFEE70120B0E70120AEE7012083
:10394000ACE740B110B5044600F0ECFBA46B00F00E
:103950000BFC204610BD4FF0500383F31188BFF3DA
:103960006F8FBFF34F8FFEE7074B1B681B6823B9B0
:10397000064B4FF0FF321A607047034B1B68DB6841
:103980001A68024B1A60704710050020C40400201A
:103990002DE9F04104460D46254B1E68254B1F6856
:1039A000254BD3F80080254B18680430FFF73BFD0A
:1039B00048B9224B1B68DB6A01229A4020490B68F8
:1039C00023EA02030B60B4F1FF3F0DD034441B4BDC
:1039D0001B685C60A6421DD9184B1968043140462B
:1039E000FFF708FDBDE8F081002DEFD0154A5168C2
:1039F000124B1868816018688C68C46018680430BD
:103A000060601868043088601B685A61136801336D
:103A10001360E7E7094B196804313846FFF7EAFC01
:103A2000094B1B68A342DDD9074B1C60DAE700BFD6
:103A3000DC040020100500200C050020A00500205B
:103A4000D8040020E4040020C4040020024A1368C3
:103A500001331360704700BFC0040020014B186899
:103A6000704700BFE0040020F8B5524B1B68002BE4
:103A700040F09980504B1C6801341C60C4B94F4B16
:103A80001B681B6843B14FF0500383F31188BFF3E9
:103A90006F8FBFF34F8FFEE7484A1168484B186895
:103AA00010601960474A136801331360FFF75CFF29
:103AB000454B1B68A34211D90020444B1B68DB6AAD
:103AC00003EB83039A00424B9B58012B00D9012042
:103AD000404B1B68002B6BD0012069E0002037E0D1
:103AE000394B4FF0FF321A60E7E7374B1A60E4E7D3
:103AF000D968516042E00021996211680139116072
:103B0000DA6A01219140344E3768394331603049D7
:103B100002EB82024FEA820C8C44DCF804209A60AB
:103B20009668DE6075609560DA6A02EB820C4FEA97
:103B30008C056E185E614D5901354FEA8C0C41F8C9
:103B40000C50DA6A214B1B68DB6A9A4200D90120CB
:103B50001A4B1B681B68002BC2D0184B1B68DB6814
:103B6000DB685A689442C0D35A699D68D968A960D5
:103B70009D684D6051681D1DA942B9D00021596151
:103B80001168013911609A6A002AB9D0DE69196A90
:103B9000B160DE694E60566803F118018E42AAD109
:103BA000196A5160A7E70D4A1368013313600020BA
:103BB000F8BD00BFC0040020DC0400201005002078
:103BC0000C050020C8040020C4040020A00500202B
:103BD00014050020CC040020D8040020D0040020CC
:103BE00038B500F09FFA4C4B1B6843B94FF05003B7
:103BF00083F31188BFF36F8FBFF34F8FFEE7464B00
:103C00001A68013A1A601B68002B7FD1434B1B686E
:103C10003BB900247BE0196A516015E0D968516016
:103C200021E000233E4A1268002A4AD03C4BDB6860
:103C3000DB689A6AD869196A8160D86948605068F7
:103C400003F118018842E6D0002199621168013918
:103C500011605A699868D9688160986848605168AD
:103C6000181D8142DAD000215961116801391160B3
:103C7000DA6A012191402B4C2568294321602A49A9
:103C800002EB820201EB820252689A609468DC6067
:103C900060609060DA6A02EB820001EB80045C6194
:103CA00051F82000013002EB820241F82200D96A6B
:103CB0001E4A1268D26A9142B4D91D4A012111608C
:103CC000B0E70BB1FFF750FE1A4B1C6894B9184BC4
:103CD0001C68E4B1154B1B684FF0E0234FF0805295
:103CE000C3F8042DBFF34F8FBFF36F8F01240EE095
:103CF000013C07D0FFF7B8FE0028F9D00C4B012299
:103D00001A60F5E70B4B00221A60E0E7002400F090
:103D10002BFA204638BD00BFC0040020E00400207C
:103D2000F8040020D804002014050020A00500207D
:103D3000CC040020D0040020204B1B681BB1204B7A
:103D400001221A6070471E4B00221A601D4B1B682F
:103D5000B3FA83F3DBB2C3F11F0303EB83018A00E1
:103D600019498A5842B94FF0500383F31188BFF3C1
:103D70006F8FBFF34F8FFEE7134803EB83018A0079
:103D8000024451684968516003EB830C4FEA8C028E
:103D90000832024491420AD003EB83039A000A4B93
:103DA00013445B68DA68094B1A601B687047624607
:103DB000910002460A44D1685160EDE7C00400203A
:103DC000CC040020D804002014050020A005002009
:103DD00058B110B50C46094A11681831FFF70AFBB3
:103DE00001212046FFF7D4FD10BD4FF0500383F3AF
:103DF0001188BFF36F8FBFF34F8FFEE7A005002040
:103E0000C368DB68002B4DD030B49A6AD869196A50
:103E10008160D8694860516803F1180081424AD036
:103E2000002199621168013911602D4A1268002A37
:103E300047D15A699868D968816098684860516824
:103E4000181D81423AD00021596111680139116071
:103E5000DA6A01219140234C2568294321602249D7
:103E600002EB820201EB820252689A609468DC6085
:103E700060609060DA6A02EB820001EB80045C61B2
:103E800051F82000013002EB820241F82200DA6A88
:103E9000164B1B68DB6A9A421FD90120144B18602D
:103EA00030BC70474FF0500383F31188BFF36F8F1E
:103EB000BFF34F8FFEE7196A5160B1E7D9685160CF
:103EC000C1E70C4A5168D9618C681C6260608860E7
:103ED0009A62116801311160D9E70020E0E700BF64
:103EE000C0040020D804002014050020A0050020F4
:103EF000CC040020F8040020034B1B680360034B34
:103F00001B684360704700BFC8040020DC04002029
:103F1000F8B5B8B10C460546E9B100F003F91C4B01
:103F200019686B68C81A2268B2F1FF3F2AD0194E8F
:103F300036682F68B74217D08B4215D8002323600C
:103F4000012420E04FF0500383F31188BFF36F8FFB
:103F5000BFF34F8FFEE74FF0500383F31188BFF399
:103F60006F8FBFF34F8FFEE7824203D80023236099
:103F7000012408E05B1A134423602846FFF7BCFFC6
:103F8000002400E0002400F0EFF82046F8BD00BF58
:103F9000DC040020C8040020014B01221A60704795
:103FA000CC040020054B1B6833B1054B1B680BB1DB
:103FB000002070470220704701207047D404002081
:103FC000C0040020002854D070B504462B4B1B6859
:103FD000834208D04FF0500383F31188BFF36F8FF3
:103FE000BFF34F8FFEE7836C43B94FF0500383F369
:103FF0001188BFF36F8FBFF34F8FFEE7013B8364E0
:10400000C16A426C914236D00BB1002070BD051DD3
:104010002846FFF708FA38B9E36A01229A4018499E
:104020000B6823EA02030B60636CE362C3F10702CF
:10403000A261012000FA03F211490E6832430A60BE
:10404000104A03EB830302EB83035B68A360996868
:10405000E1604D609D60E36A03EB830102EB810543
:10406000656152F82110014403EB830342F82310E9
:10407000CCE7002070470020C8E700BFA005002063
:10408000D8040020140500200000000000000000FB
:10409000074B19680868B0E8F04F80F30988BFF350
:1040A0006F8F4FF0000080F311887047AFF30080EE
:1040B000A00500200000000000000000000000003B
:1040C000EFF30980BFF36F8F154B1A681EF0100FC6
:1040D00008BF20ED108A20E9F04F10602DE909009B
:1040E0004FF0500080F31188BFF34F8FBFF36F8FF5
:1040F000FFF722FE4FF0000080F3118809BC196819
:104100000868B0E8F04F1EF0100F08BFB0EC108A3E
:1041100080F30988BFF36F8F704700BFAFF3008053
:10412000A00500204FF0500383F31188BFF36F8F79
:10413000BFF34F8F0B4A136801331360012B00D07C
:1041400070474FF0E023D3F8043D13F0FF0FF7D092
:104150004FF0500383F31188BFF36F8FBFF34F8F7E
:10416000FEE700BF0C000020094B1B6843B94FF06D
:10417000500383F31188BFF36F8FBFF34F8FFEE7B8
:10418000013B034A13600BB983F31188704700BFEA
:104190000C00002008B54FF0500383F31188BFF3E3
:1041A0006F8FBFF34F8FFFF75FFC28B14FF0E02315
:1041B0004FF08052C3F8042D002383F3118808BD0B
:1041C000EFF305830F2B0FD9114A9B5CDBB2114A29
:1041D00012789A4208D94FF0500383F31188BFF345
:1041E0006F8FBFF34F8FFEE74FF0E023D3F80C3D06
:1041F00003F4E063084A1268934208D94FF0500371
:1042000083F31188BFF36F8FBFF34F8FFEE77047C3
:10421000F0E300E0A8050020A4050020012070477D
:1042200008B501F00BF8162303604FF0FF3008BD0E
:1042300008B54FF0FF31FFF7F3FFFEE770B50C460E
:104240001646002506E000F047F8214601F8010B6C
:1042500001350C46B542F6DB304670BD70B50C46F4
:104260001646002504E014F8010B00F051F8013562
:10427000B542F8DB304670BD4FF0FF3070474FF469
:1042800000534B60002070470120704700207047AA
:1042900010B503460C4A0D490D48006840B10C4862
:1042A00000680344521A934206D8094A136010BDAD
:1042B0000748084C0460F2E700F0C0FF0C230360DD
:1042C0004FF0FF30F3E700BF0000012000040000C2
:1042D000AC050020400700200C4B186890B100B5D9
:1042E00083B04FF0FF3301220DF1070100F070F9A8
:1042F000012804D04FF0FF3003B05DF804FB9DF8B7
:104300000700F9E74FF0FF30704700BFB00500200D
:1043100000B583B001900A4B186858B14FF0FF33D5
:10432000012201A900F0CEF8012806D1019803B0BE
:104330005DF804FB4FF0FF30F9E74FF0FF30F6E790
:10434000B0050020C06F003818BF01207047000082
:1043500010B588B004460023039304930593069395
:10436000079302682D4B9A4209D022682C4B9A423F
:104370001FD022682B4B9A4235D008B010BD03F5F0
:104380005843DA6C42F00102DA64DB6C03F001039B
:104390000093009B4FF4C063039302230493032311
:1043A00006930723079303A94FF09040FCF7BAFE4A
:1043B000DBE703F5E633DA6C42F00802DA64DB6C23
:1043C00003F008030193019B6023039302230493EA
:1043D00000230593032306930723079303A9124899
:1043E000FCF7A0FEC5E703F5E433DA6C42F0040203
:1043F000DA64DB6C03F004030293029B4FF4406326
:1044000003930223049300230593032306930723B6
:10441000079303A90548FCF785FEAEE70038014085
:104420000044004000480040000C004800080048DC
:1044300010B584B00268204B9A4215D06FF00D047D
:1044400002681E4B9A421CD002681D4B9A4225D02E
:10445000FFF77EFF002205212046FCF701FE2046E3
:10446000FCF70EFE04B010BD03F558431A6E42F47B
:1044700080421A661B6E03F480430193019B25243E
:10448000DEE703F5E6339A6D42F400329A659B6DE0
:1044900003F400330293029B2624D5E703F5E433AB
:1044A0009A6D42F480229A659B6D03F480230393F6
:1044B000039B2724CCE700BF0038014000440040A4
:1044C000004800402DE9F04383B022B90024204683
:1044D00003B0BDE8F08304460F4698461646FFF742
:1044E00031FF0028F2D02368304A93421CD00025C7
:1044F000A9462F4A93421BD02E4A93421CD0FFF765
:1045000011FE2046FEF74EFC00F02100212807D0C6
:10451000B9F1000F04D0D9F80000FFF712FA78B112
:10452000FFF722FE002527E0234DDFF89890E0E713
:10453000224DDFF89490DFE7214DDFF89090DEE721
:1045400032463946284600F0A6FE32462946204625
:10455000FEF754FA18B90224FFF706FEB7E7002465
:10456000FAE70023424601A9D9F80000FFF70DF849
:10457000012817D10135EDB2B54215D2741B012CBB
:10458000A8BF0124E4B22246791901A800F083FEF5
:10459000002CE6D1C4F10102002101AB181900F092
:1045A00041FEDEE7002492E7022490E70038014054
:1045B0000044004000480040CC050020C005002019
:1045C000B4050020EC050020E4050020DC050020F7
:1045D00000294AD02DE9F04182B0074614461D4615
:1045E0000E461AB9002002B0BDE8F081FFF7AAFE1E
:1045F0000028F7D03B681E4A934209D000271D4A85
:10460000934208D01C4A934208D04FF000080BE0B8
:104610001A4A1768F3E71A4A1768F3E7194B1F6835
:10462000F3E741445FFA81F8A0451AD22A4601A96E
:104630003846FFF76EF8B0B14246A4EB08010129F5
:10464000A8BF0121C9B200238B42EAD2D01803F1DE
:10465000080CEC441CF804CC06F800C00133DBB2B3
:10466000F2E70320BFE70420BDE70020704700BF4A
:10467000003801400044004000480040E8050020A8
:10468000E0050020D8050020F0B58BB007460023D8
:1046900009930368244A934208D00026234A934290
:1046A00006D0234A93421CD000240DE0214EF5E7AA
:1046B000214EF6E705F128030DEB03059DF80030C8
:1046C00005F8243C0134E4B22546631C202B06D8AF
:1046D00009AA69463068FFF7CBF80128EAD026B965
:1046E0001AE0164EE0E70134E4B21F2C07D809AAFD
:1046F00001AB19193068FFF7BBF80128F3D06CB98A
:10470000099B4BB14FF0E0234FF08052C3F8042DCA
:10471000BFF34F8FBFF36F8F0BB0F0BD224601A9DF
:104720003846FEF76BF9EBE70038014000440040E3
:1047300000480040EC050020E4050020DC050020D6
:1047400008B5024B1868FEF7A9F908BD280100203A
:1047500008B5024B1868FEF7A1F908BD9C000020BF
:1047600008B5024B1868FEF799F908BD1000002043
:10477000DFF834D0FEF7B6FD0C480D490D4A002392
:1047800002E0D458C4500433C4188C42F9D30A4A06
:104790000A4C002301E013600432A242FBD300F074
:1047A00053FDFCF7A5FBFEE7000001200000002000
:1047B0008003002070780008800300203C07002060
:1047C000FEE72DE9F04F85B057EC106BDDE90E9B4D
:1047D000002F0C4690461946B8BF32463B462BF098
:1047E000200ABBBF07F100431F4600232D23B8BF9B
:1047F0001646BAF1460F0B7005D0BAF1450F00D13D
:104800000134022100E0032103AB019302AB0093CA
:1048100047EC106B4B46224600F0D6FDBBF1670F0C
:10482000054619D118F0010F0ED005EB040800223F
:10483000002330463946FCF727F908B1CDF80C8043
:104840003022039B434521D3039B109A5B1B2846D0
:10485000136005B0BDE8F08FBBF1470FE2D0BAF1AD
:10486000460F00EB0408E2D10378302B0AD1002276
:10487000002330463946FCF707F918B9C4F10104A2
:10488000C9F80040D9F800309844D0E7591C03918A
:104890001A70D6E7F7B50029BABF49422D232B235A
:1048A00009290270437029DD0DF107031D460A270F
:1048B0001A46B1FBF7F607FB1614303402F8014C28
:1048C0000C46632C03F1FF333146F1DC3031941E8A
:1048D00003F8011C411C2346AB420AD30DF1090326
:1048E0009B1AAC4288BF002302330344181A03B05A
:1048F000F0BD13F8016B01F8016FEDE730233031A3
:104900008370C170031DF1E72DE9F04F8DB00C46A7
:10491000DDF8588016461F46054600F08BFC0368FC
:1049200004931846FBF784FC00230A93D8F8003060
:104930000590073323F0070303F1080294F818A049
:10494000D4F800B0C8F80020D3E9008929F000436A
:104950000793CDF81880C4E91289DDE90601A04B60
:104960004FF0FF32FCF7C2F870BBDDE906019C4B4B
:104970004FF0FF32FCF79CF830BB0022002340468A
:104980004946FCF78BF810B12D2384F84330954A43
:10499000954BBAF1470F94BF904698460323236185
:1049A0002BF0040323604FF00009009733460BAA55
:1049B0002146284600F0DAF9013040F096804FF0A9
:1049C000FF300DB0BDE8F08F42464B4640464946A9
:1049D000FCF78CF840B14B46002BBCBF2D2384F86C
:1049E0004330824A824BD4E763685A1C26D106239F
:1049F00063604BF480620023226003930AABCDE92D
:104A000001A309AB0093616849EC108B0DF12303FE
:104A10002846FFF7D6FEBAF1670F0999804615D1EF
:104A2000CB1C3BDB6368994238DC0A9B994255DB1F
:104A300023682161D80745D54B1C42E00AF0DF020C
:104A4000472AD6D1002BD4D10123D1E7BAF1470FA1
:104A500007D1C81C25DB63688B4222DB4FF0670A55
:104A6000E3E7BAF1650F1FD80139524604F150004F
:104A70000991FFF70FFF0A9A1318012A8146236153
:104A800002DC2268D20701D5013323619DF823306F
:104A9000002B8AD02D2384F8433086E74FF0650A37
:104AA000E2E74FF0450ADFE7BAF1660FBDD1002912
:104AB00063680BDD216113B92268D00702D5013389
:104AC0000B442361A1654FF00009DFE713B92268A9
:104AD000D20701D50233F4E70123F2E70029D4BF5E
:104AE000C1F1020201221344EBE723685A0507D4FF
:104AF0002369424631462846B84701302BD15EE74C
:104B0000BAF1650F40F2DC80D4E9120100220023E3
:104B1000FBF7BAFF002833D0364A01233146284636
:104B2000B84701303FF44BAFDDE90938434502DBBC
:104B30002368D8070FD5DDE9042331462846B84756
:104B400001303FF43CAF4FF0000908F1FF3804F1A9
:104B50001A0AC84509DC23689B0700F10281E06856
:104B60000B9B9842B8BF18462BE7012352463146AB
:104B70002846B84701303FF422AF09F10109E8E7C0
:104B8000099B002B38DC1B4A012331462846B847D5
:104B900001303FF414AFDDE9093959EA030302D1CA
:104BA0002368D907D7D5DDE9042331462846B8471D
:104BB00001303FF404AF4FF0000A04F11A0B099BD7
:104BC0005B42534501DC4B4693E701235A4631468D
:104BD0002846B84701303FF4F2AE0AF1010AEEE789
:104BE000FFFFEF7FD8740008DC740008E074000851
:104BF000E4740008E8740008A36DDDF828A05345AC
:104C0000A8BF5346002B994636DC4FF0000B29EA2B
:104C1000E97904F11A02A36D0693A3EB09035B453E
:104C200031DC099B9A453ADC2368DA0737D4099BC3
:104C3000AAEB0309069BAAEB03039945A8BF994673
:104C4000B9F1000F33DC4FF0000829EAE97904F1EB
:104C50001A0B099BAAEB0303A3EB090343457FF758
:104C60007AAF01235A4631462846B84701303FF40F
:104C7000A6AE08F10108ECE7424631462846B8479F
:104C80000130C2D19BE60123314628460692B8473F
:104C900001303FF494AE069A0BF1010BBBE7DDE95E
:104CA000042331462846B8470130C0D187E6069A2A
:104CB0004B46424431462846B8470130C3D17EE6D0
:104CC000DDF828A0BAF1010F01DCDB0736D501239E
:104CD000424631462846B84701303FF470AEDDE920
:104CE000042331462846B84701303FF468AED4E982
:104CF0001201002200230AF1FF3AFBF7C5FEC0B9FA
:104D0000534608F1010231462846B84701300CD11C
:104D100055E601235A4631462846B84701303FF44C
:104D20004EAE08F10108D045F3DB4B4604F15002CA
:104D3000E0E64FF0000804F11A0BF4E701234246C5
:104D4000E1E701234A4631462846B84701303FF49F
:104D500036AE08F10108E3680B995B1A4345F0DCB5
:104D6000FDE64FF0000804F11909F4E72DE9F047DA
:104D7000164698468A680B69DDF820909342B8BFC2
:104D80001346336091F8432007460C460AB10133BD
:104D900033602368990642BF336802333360256865
:104DA00015F0060506D104F1190AE36832689B1A6A
:104DB000AB4226DC94F843302268003B18BF012345
:104DC00092062BD404F1430241463846C8470130CD
:104DD0001ED02368226903F00603042B02BFE56896
:104DE0003368ED1AA3680CBF25EAE57500259342E8
:104DF000C4BF9B1AED1800261A34B5421AD1002000
:104E000008E00123524641463846C847013003D1E5
:104E10004FF0FF30BDE8F0870135C6E7E1185A1CB6
:104E2000302081F84300224494F8451082F8431062
:104E30000233C7E70123224641463846C8470130BE
:104E4000E6D00136D9E700002DE9FF470F7E0C9E22
:104E5000782F914680460C469A4601F1430207D8C6
:104E6000622F0AD8002F00F0DD80582F00F0C38099
:104E700004F1420684F842703AE0A7F16303152B6F
:104E8000F6D801A151F823F0E14E0008F54E0008D4
:104E9000714E0008714E0008714E0008714E0008F6
:104EA000F54E0008714E0008714E0008714E000862
:104EB000714E00080B500008834F0008C34F0008D4
:104EC000714E0008714E00082D500008714E000808
:104ED000834F0008714E0008714E0008CB4F000848
:104EE00033681A1D1B68326004F1420684F84230B0
:104EF0000123A8E031682368081D30601E0601D533
:104F00000D6803E05D06FBD5B1F900506168002D26
:104F100078DA2D20002984F84300A1602DDA5E485C
:104F20006D420A231646B5FBF3F103FB1157C75D2B
:104F300006F8017D2F46BB420D46F4D9082B0BD154
:104F40002368DF0708D5236961689942DEBF3023F3
:104F500006F8013C06F1FF36921B2261CDF800A055
:104F60004B4603AA21464046FFF700FF01306FD1B0
:104F70004FF0FF3004B0BDE8F08723F00403236056
:104F8000CDE721683368080653F8045B02D449066C
:104F900048BFADB26F2F4048336014BF0A230823C7
:104FA000002184F843106668A660002EBADB2168F1
:104FB00021F004012160002DB4D1002EB2D116469B
:104FC000BCE7236843F0200323603448782784F843
:104FD0004570236831681F0651F8045B02D45F06F0
:104FE00048BFADB23160D90744BF43F0200323600E
:104FF0001DB11023D4E72848E9E7236823F02003F4
:105000002360F6E724480A23CDE733682568616901
:10501000181D30602E061B6801D5196002E0680675
:10502000FBD5198000232361164697E733681A1DC4
:1050300032601E68626800213046FBF7A9F808B1AB
:10504000801B606063682361002384F8433085E738
:105050002369324649464046D047013088D023680C
:105060009B0714D4E068039B9842B8BF184681E7B9
:105070000123324649464046D04701303FF478AFDD
:105080000135E36803995B1AAB42F1DCEAE70025DE
:1050900004F11906F5E700BFEA740008FB74000884
:1050A000002310B50446C0E90033C0E9043383602F
:1050B00081814366C2818361194608225C3000F019
:1050C000B1F80D4B63620D4BA3620D4BE3620D4BC8
:1050D00023630D4B24629C4206D003F16802944284
:1050E00002D0D0339C4205D104F15800BDE81040F5
:1050F00000F0CEB810BD00BFE1690008036A0008E7
:105100003B6A00085F6A0008F0050020024A034974
:10511000034800F069B800BFB40100206D620008C8
:10512000C401002041680C4B994210B5044601D0DF
:1051300001F09CF8A168094B994202D0204601F089
:1051400095F8E168064B994204D02046BDE810402E
:1051500001F08CB810BD00BFF005002058060020FB
:10516000C006002010B50B4B0B4C0C4A1A602046B1
:1051700000220421FFF794FF04F1680001220921B5
:10518000FFF78EFF04F1D0000222BDE8104012218B
:10519000FFF786BF28070020F00500200D5100080A
:1051A000014800F076B800BF2D070020014800F04C
:1051B00071B800BF2D07002010B50446FFF7F0FFBF
:1051C000236A1BB1BDE81040FFF7F0BF044B236218
:1051D000044B1B68002BF5D1FFF7C4FFF2E700BFBB
:1051E00025510008280700202DE9F8430746884686
:1051F00014460026D4E90195B9F1010905D52468C2
:10520000002CF7D13046BDE8F883AB89012B07D9D4
:10521000B5F90E30013303D029463846C04706435E
:105220006835E9E702440346934200D1704703F82A
:10523000011BF9E70048704700030020014B186884
:10524000704700BFC001002070B50D4D0D4C641BB0
:10525000A4100026A64209D10B4D0C4C02F00AF90D
:10526000641BA4100026A64205D170BD55F8043B6E
:1052700098470136EEE755F8043B98470136F2E7C8
:10528000607800086078000860780008647800089A
:105290007047704770470A44914200F1FF3300D1D4
:1052A000704710B511F8014B03F8014F9142F9D145
:1052B00010BD2DE9F74F03690C69A34207467EDB59
:1052C000013C01F11408A30000F11405009305EB63
:1052D0008403019358F8243055F8242001339A426E
:1052E00008EB8409B2FBF3F62ED34FF0000AC44654
:1052F000AE46D3465CF8043B98B206FB00A0020C15
:105300001B0C06FB0323DEF8002080B292B2121AB7
:105310005A44DEF800004FEA134A9BB2C3EB224323
:1053200003EB104392B242EA0342E1454EF8042BEC
:105330004FEA234BDED2009BEB582BB9019B043B79
:105340009D421A462FD33C61384601F041FA0028AD
:1053500025DB2946002058F8042BD1F800C01FFA9D
:1053600082FE1FFA8CF3A3EB0E030344120CC2EB74
:10537000234202EB1C429BB243EA0243C14541F87F
:10538000043B4FEA2240E6D255F8242005EB840383
:1053900022B9043B9D421A460BD33C61013630468C
:1053A00003B0BDE8F08F1268043B002ACBD1013C6A
:1053B000C6E71268043B002AEFD1013CEAE700206F
:1053C000EEE70000000000002DE9F04FC76997B03C
:1053D0008DED000B55EC104B209E089183460C92EE
:1053E00012937FB9102000F01BFE0246CBF81C0080
:1053F00020B9A74BEF21A74801F08CFBC0E901774A
:105400000760C760DBF81C30196859B15A684A60F8
:10541000012393408B60584600F09CFFDBF81C3062
:1054200000221A602B1EB9BF23F000430193002312
:105430003360019F984BBCBF01223260BB4319D13E
:10544000129A42F20F731360C7F31303234300F061
:10545000DD85219B53B9914B21E0914B0393083398
:10546000219A1360039817B0BDE8F08F8B4B03931C
:105470000333F5E79DED007B002251EC170B002371
:105480008DED0A7BFBF700FB804650B1129A012399
:105490001360219B13B1219A824B1360824B0393BB
:1054A000E0E79DED0A0B14AA15A9584601F040FA51
:1054B000C7F30A560290002E78D00B9BCDF84C8093
:1054C000C3F31303DDE90A0143F07F5343F44013B0
:1054D000A6F2FF3619460022744BFAF7B5FE66A312
:1054E000D3E90023FBF768F865A3D3E90023FAF7B3
:1054F000ADFE044630460D46FAF7F4FF62A3D3E949
:105500000023FBF759F802460B4620462946FAF7D6
:105510009DFE04460D46FBF7FFFA002207460023D6
:1055200020462946FBF7BAFA40B13846FAF7DAFFC7
:1055300022462B46FBF7A8FA00B9013F162F52D896
:105540005B4B03EBC703D3E90023DDE90A01FBF75B
:10555000A5FA002849D0013F00231193149B9B1BFF
:105560005A1E45BFC3F1010306930023002307928F
:1055700054BF06930793002F39DB079B10973B44DA
:10558000079300230993089B092B66D8052BC4BFFA
:10559000043B0893089BA3F10203CCBF0024012421
:1055A000032B65D8DFE803F02B383657DDE91463A9
:1055B0001E4406F23243202BC1BFC3F140039F407B
:1055C00006F2124324FA03F3D6BFC3F1200347EADD
:1055D000030004FA03F0FAF775FF0122A1F1F87352
:1055E000013E139276E70123B7E71190B6E7069BD9
:1055F000DB1B06937B42099300231093C3E7002330
:105600000D930C9B002B57DC0123049399461A46FB
:105610000C920CE00123F3E700230D930C9BFB1885
:1056200003F1010904934B46012BB8BF0123DBF8BA
:105630001C000021042202F114059D4240D9416062
:10564000584600F047FE039000283CD1194B024613
:1056500040F2AF11CFE60123DFE7012400230893D6
:105660000D944FF0FF330493994600221223CFE7A5
:1056700001230D93F5E700BF61436F63A787D23F16
:10568000B3C8608B288AC63FFB799F501344D33F31
:1056900019750008307500080000F07F15750008C6
:1056A0000C750008E9740008E87400080000F83F71
:1056B00038760008917500080C9B04939946B6E76C
:1056C00001315200B7E7DBF81C30039A1A60B9F1D8
:1056D0000E0F6FD8002C6DD0002F36DDA14B07F0D8
:1056E0000F0203EBC20393ED007BF8058DED0E7BFB
:1056F0004FEA271417D59C4BDDE90A01D3E90823AB
:10570000FBF784F8CDE9000104F00F044FF0030823
:10571000954D5CB9DDE90E23DDE90001FBF776F874
:10572000CDE900012BE04FF00208F1E7E10709D5D0
:10573000DDE90E01D5E90023FAF73EFFCDE90E01C0
:1057400008F1010864100835E3E700F007817C42A6
:10575000844B854D04F00F0203EBC203D3E9002311
:10576000DDE90A01FAF728FFCDE900012411002341
:105770004FF00208002C40F0E580002BD0D1119BA7
:10578000DDE90045002B00F04C81784B00222046DB
:105790002946FBF783F9002800F04381B9F1000F97
:1057A00000F03F81049B002B00F3E480DDE90A3424
:1057B000CDE90034159B002B02DB0E2F40F3428213
:1057C0000D9A002A40F06782099CDDF818800025B8
:1057D000B8F1000F0DD0079B002B0ADD4345069A58
:1057E000A8BF4346D21A0692079AA8EB0308D31A19
:1057F0000793099B0BB30D9B002B00F0A682002C96
:1058000000F0A18229462246584600F01BFF029A6A
:1058100001460546584600F06BFE0299064658467A
:1058200000F098FD099B1B1B099300F09182099AD7
:105830003146584600F006FF02900121584600F01C
:1058400041FE109B0446002B00F084821A4601465C
:10585000584600F0F7FE089B012B044603DC009B32
:10586000002B00F07C820026236904EB8303186977
:1058700000F0D8FD1096C0F12000079B184410F0EE
:105880001F0000F09182C0F12003042B40F38182BD
:10589000069BC0F11C0003440693079B034480440D
:1058A0000793069B002B05DD02991A46584600F027
:1058B00023FF0290079B002B05DD21461A46584620
:1058C00000F01AFF0446119B002B00F0768202982C
:1058D000214600F07DFF002880F26F8200230299AC
:1058E0000A22584600F058FD0D9B02907E1E002BA8
:1058F00000F05C82002329460A22584600F04CFD45
:10590000049B002B054603DC089B022B00F35E8200
:10591000B8F1000F05DD29464246584600F0ECFE7E
:105920000546109B002B00F0D0826968584600F0B5
:10593000D1FC0746002840F07F820D4B024640F222
:10594000EF2158E5E20706D5D5E90023FAF734FE42
:1059500008F101080123641008350BE74FF0020835
:105960000DE700BF38760008107600080000F03F11
:10597000917500082046AD4B00222946FAF71CFE1F
:10598000CDE90001049C7E1E08F101084046FAF7AB
:10599000A9FDDDE90023FAF70FFEA54B0022FAF777
:1059A00055FCA1F15073CDE90E010F93002C3BD1B2
:1059B000DDE900019F4B0022FAF746FC02460B4648
:1059C000CDE90023DDE90E23FBF786F8002840F03F
:1059D0005781DDE90E2101F10043DDE90001FBF70C
:1059E0005DF800283FF4E2AE002425460C9BDDF86C
:1059F0000CA0DE434FF000082146584600F0AAFCF8
:105A0000002D00F0A980B8F1000F05D0A84503D003
:105A10004146584600F09EFC2946584600F09AFC44
:105A20009AE03E464C46B1E7834B03EBC40353E98F
:105A30000201039B1C440D9B002B4AD002460B46DF
:105A400000207E49FAF7E2FEDDE90E23FAF7FCFBBF
:105A5000CDE90E01DDF80CA0DDE90001FBF75CF8F3
:105A60000546FAF73FFD02460B46DDE90001FAF76D
:105A7000EBFB3035CDE9000102460B460AF8015B2D
:105A8000DDE90E01FBF728F8002865D1DDE90023E8
:105A90006B490020FAF7D8FB02460B46DDE90E0100
:105AA000FBF71AF8002840F00D81A24500F0EA80CB
:105AB000DDE90E015D4B0022FAF77EFD5B4BCDE97F
:105AC0000E010022DDE90001FAF776FDCDE90001C3
:105AD000C2E7DDE90E23FAF76FFDCDE90E01DDF82F
